:1000000007308A001B2F0000FF00030E8301A500AC
:100010007F08A4000A08AB008A01A40E0408A60009
:100020002008A7002108A8002208A9002308AA0088
:10003000831383128C308400001C20280C18312874
:10004000260884002708A0002808A1002908A2008B
:100050002A08A3002B088A00250E8300FF0E7F0EBE
:1000600009008A11D52A66080319A328EE006A0838
:100070000319A328EE07031844287F30EE02031C5F
:10008000A3280319A32848288130EE070318A328C2
:100090006E08A000A101A201A3016708F200F217F7
:1000A0006808F1006908F0001830EE00EF01701CDC
:1000B00071286D08A307031C6328A20A031D632887
:1000C000A10A0319EF176C08A207031C6A28A10AEA
:1000D0000319EF176B08E800E8176808A107031871
:1000E000EF17EF0DA10CA20CA30CF20CF10CF00C0D
:1000F0000310EE0B56280130A0070318A328A11BFC
:100100008828F20DA30DA20DA10DA0030319A328A9
:10011000F21F9928A30A031D9928A20A031D9928F2
:10012000A10A031D9928A10CA20CA30CA00A031973
:10013000A3286708EF006B08EF06EF1FA128A1179F
:10014000A728A113A728A001A101A201A3010800CB
:1001500080308318EF06F401F5016B08F3006F0897
:10016000F3066A0803199529F200A0006E08031926
:100170009E29F20203193B29031CFA286F08F80094
:10018000F8177008F7007108F600F5010310F80C75
:10019000F70CF60CF50CF20BC528F31FD2287414DB
:1001A000B2297410721074166D308400C72974124D
:1001B000F31BE428721CEF28F80CF70CF60CF50C76
:1001C000A00A0319AD29EF28F81BF2280310F50D3A
:1001D000F60DF70DF80DA0030319AD29E4287417E7
:1001E0005A2974136B08F300F31FF828F817A6298F
:1001F000F813A6296E08F200A0006A08F2026B0844
:10020000F800F8176C08F7006D08F600F501031008
:10021000F80CF70CF60CF50CF20B0629F31F13295A
:10022000F414B229F4107210F41671308400C72946
:10023000F412F31B2529721C3029F80CF70CF60C6C
:10024000F50CA00A0319AD293029F81B3329031036
:10025000F50DF60DF70DF80DA0030319AD292529AD
:10026000F4175A29F4136F08F300F31F3929F8170C
:10027000A629F813A6296F08F800F8177008F700E8
:100280007108F600F31F4829F8137415B229741188
:10029000F50172106D308400C729F31B70296B08BB
:1002A000F300721C5A29F80CF70CF60CF50CA00A96
:1002B0000319AD29F51F6B29F60A031D6B29F70AEF
:1002C000031D6B29F80A031D6B29F80CF70CF60CBB
:1002D000A00A0319AD29741BF128F41B32298F29B8
:1002E0008030F806F81F7829B2296F08F3008529B5
:1002F0006B08F300F808031D8529F708031D8529FD
:10030000F608031D8529A001A629F81B8F290310D3
:10031000F50DF60DF70DF80DA00B8529AD29F31F8E
:100320009329F817A629F813A6296E08A0006F08CC
:10033000F8007008F7007108F600A6296A08A00006
:100340006B08F8006C08F7006D08F6007808A1004B
:100350007708A2007608A300E529A001A101A20167
:10036000A301E529F501F609F709F809F509F50AE8
:10037000031DC029F60A031DC029F70A0319F80A4C
:100380007418D128F41812297419472975290008FE
:10039000F607031CD129F70A031DD129F80A03190E
:1003A000721484030008F707031CD929F80A0319FB
:1003B000721484030008801F803AF807031872142F
:1003C000741AD728F41A18294D2908006A08031945
:1003D000AB2AF6006E080319AB2AF602031CF529B6
:1003E0007F30F6070318AB2AFB298130F602031C85
:1003F000AB2A0319AB2A7608A000A101A201A30130
:10040000F5016B08F400F4176C08F3006D08F200B6
:100410001930F6007108F20203181E2A0130F302A7
:1004200003181E2AF40203181E2AF50203181E2AB6
:10043000F50AF40AF30A7108F207502A7008F30269
:100440000318392A0130F4020318392AF502031877
:10045000392AF50AF40A7008F3077108F207031C39
:10046000502AF30A031D502AF40A031D502AF50AE4
:10047000502A6F088038F40203184F2A0130F50221
:1004800003184F2AF50A6F088038F4077008F3073D
:10049000031C2D2AF40A031D2D2AF50A2D2A2314E4
:1004A000F60B532A5E2A0310F20DF30DF40DF50D31
:1004B0000310A30DA20DA10DF70D0A2A771C662AC1
:1004C0000310A10CA20CA30CF70C692AA0030319BA
:1004D000AB2AF71B922A0310F20DF30DF40DF50D64
:1004E0007108F20203187E2A0130F30203187E2AF3
:1004F000F40203187E2AF502031CA12A7008F302F5
:100500000318892A0130F4020318892AF502031C12
:10051000A12A6F088038F4020318922A0130F502EC
:10052000031CA12AA30A031DA12AA20A031DA12AB2
:10053000A10A031DA12AA00A0319AB2AA10CA20C2F
:10054000A30C6B08F6006F08F606F61FA92AA11780
:10055000AF2AA113AF2AA001A101A201A3010800A3
:100560008E30A0006708A1006608A200A301E71F63
:10057000BE2AA109A209A20A0319A10AA108031D02
:10058000CB2A2208A100A2010830A002A108031D65
:10059000CB2AA001D42A0310A11BD22AA20DA10D9F
:1005A000A003CB2AE71FA11308000030A1001F08F9
:1005B000C73921049F002030A000A00BDD2AE02ACB
:1005C0000000C001BF01BE01BD01C401C301C201E1
:1005D000C101C801C701C601C501CC01CB01CA01D7
:1005E000C9011F151F19F22A1E08A30083161E0831
:1005F0008312CD002308CE008E30A0004E08A1004B
:100600004D08A200A301A108031D102B2208A10080
:10061000A2010830A002A108031D102BA001182B75
:100620000310A11B172BA20DA10DA003102BA113CA
:100630002308C0002208BF002108BE002008BD001A
:100640004008E9003F08E8003E08E7003D08E600F2
:10065000ED01EC012030EB007730EA003320230875
:10066000C0002208BF002108BE002008BD004008CD
:10067000E9003F08E8003E08E7003D08E600ED011C
:100680004030EC001C30EB008B30EA0033202308B4
:10069000D0002208CF002108CE002008CD0083140E
:1006A000ED01EC012030EB008130EA004008F10060
:1006B0003F08F0003E08EF003D08EE00A82050087B
:1006C000ED004F08EC004E08EB004D08EA0023084F
:1006D000F1002208F0002108EF002008EE00E621DA
:1006E0002308C4002208C3002108C2002008C1005A
:1006F0004408ED004308EC004208EB004108EA0022
:10070000F1016030F0006A30EF008C30EE00E6213D
:100710002308D0002208CF002108CE002008CD00F9
:100720005008D4004F08D3004E08D2004D08D10025
:100730005408D8005308D7005208D6005108D500F5
:100740005808E9005708E8005608E7005508E60091
:10075000ED01EC01EB017F30EA006708EE006B0869
:10076000EE06EE1FB82B03110310E71B0314EB2B4F
:100770006708EE006A08EF006608EF020319C62B4F
:10078000EE1FEB2B0308013A8300EB2B6B08EF0005
:100790006708EF020319D22BEE1FEB2B0308013A77
:1007A0008300EB2B6C08EF006808EF020319DE2BC7
:1007B000EE1FEB2B0308013A8300EB2B6D08EF00D3
:1007C0006908EF020319EA2BEE1FEB2B0308013A2D
:1007D0008300EB2B03100319622D5530E6008400D3
:1007E0007E30800083145808ED005708EC0056084E
:1007F000EB005508EA00F101F001EF017F30EE0057
:10080000A8202308E9002208E8002108E7002008C2
:10081000E60083105808ED005708EC005608EB007E
:100820005508EA00F101F001EF017F30EE00A82049
:100830006908ED006808EC006708EB006608EA004C
:100840002308F1002208F0002108EF002008EE0044
:10085000E6212308D8002208D7002108D600200866
:10086000D5005808E9005708E8005608E700550881
:10087000E6005808ED005708EC005608EB00550854
:10088000EA0033202308E4002208E3002108E20004
:100890002008E1009930E9004730E8008A30E7009D
:1008A0007F30E6006408ED006308EC006208EB00AE
:1008B0006108EA0033202308E9002208E800210843
:1008C000E7002008E60083102308ED002208EC0072
:1008D0002108EB002008EA00F101F001EF0180306F
:1008E000EE00A8202308DC002208DB002108DA0043
:1008F0002008D9004C30E900F330E8003A30E70036
:100900007B30E6006408ED006308EC006208EB0051
:100910006108EA0033202308E9002208E8002108E2
:10092000E7002008E60083102308ED002208EC0011
:100930002108EB002008EA002B30F1009D30F00088
:10094000DF30EF007E30EE00A8202308E000220810
:10095000DF002108DE002008DD006008E9005F08F4
:10096000E8005E08E7005D08E6006408ED00630843
:10097000EC006208EB006108EA0033202308E9007C
:100980002208E8002108E7002008E6008310230879
:10099000ED002208EC002108EB002008EA00F1013C
:1009A000F001EF017F30EE00A8202308E0002208CC
:1009B000DF002108DE002008DD005808E9005708A4
:1009C000E8005608E7005508E6005C08ED005B0803
:1009D000EC005A08EB005908EA0033202308E9002C
:1009E0002208E8002108E7002008E6002308ED00BF
:1009F0002208EC002108EB002008EA006008F10062
:100A00005F08F0005E08EF005D08EE00E6212308B5
:100A1000DC002208DB002108DA002008D900513070
:100A2000E60084007E300002E500E51F282D650801
:100A3000003CE701E600E61BE703B0222008DD00EA
:100A40002108803ADE002208DF002308E000362D6E
:100A5000E7016508E600E61BE703B0222308E00093
:100A60002208DF002108DE002008DD006008E90020
:100A70005F08E8005E08E7005D08E6001830ED005A
:100A80007230EC003130EB007E30EA00332083100E
:100A90005C08ED005B08EC005A08EB005908EA001E
:100AA0002308F1002208F0002108EF002008EE00E2
:100AB000A8202308DC002208DB002108DA00200837
:100AC000D900662DDC01DB01DA01D9015908A0004B
:100AD0005A08A1005B08A2005C08A3002308CC0010
:100AE0002208CB002108CA002008C9004C08E900F0
:100AF0004B08E8004A08E7004908E6005330ED00DB
:100B00000430EC006930EB007230EA0033208310CF
:100B10000F30ED00CF30EC005B30EB007630EA00B8
:100B20002308F1002208F0002108EF002008EE0061
:100B3000A8202308CC002208CB002108CA002008E6
:100B4000C900ED01EC01EB017F30EA004C08F10037
:100B50004B08F0004A08EF004908EE00E6212308A0
:100B6000C8002208C7002108C6002008C500831459
:100B70004808ED004708EC004608EB004508EA008D
:100B80003330F1009330F0000830EF008730EE0092
:100B9000A8202308C8002208C7002108C600200892
:100BA000C5004508A0004608A1004708A200480863
:100BB000A3002308C0002208BF002108BE002008AF
:100BC000BD008E30A0003D08A0023E08A2003F08F4
:100BD000A100A217A0080319F82D0310A208031DF5
:100BE000F42DA1080319F82DA20CA10CA00BED2DDA
:100BF000BE1FFF2DA109A209A10A0319A20A2108FB
:100C0000B8003808633C031C082EB808031D0A2EE0
:100C100037140B2E37100C108A1120283F30AD00EE
:100C20000630AE005B30AF004F30B0006630B10030
:100C30006D30B2007D30B3000730B4007F30B500B6
:100C40006730B6008A11442F3A3084000008031937
:100C5000362E0230A100A001A00B2C2EA10B2B2EB2
:100C60009730A000A00B322E800B292E08003B08E5
:100C7000A1013A0203183F2E3A08A0004B2EA00112
:100C80000830BC00BA0DA00D3B0820020318A000DC
:100C9000A10DBC0B422E08003908093C031C7D2E17
:100CA0008316860183122C088600FC308316870089
:100CB000831207102D303907840000082C04BA0075
:100CC0008316860183123A0886000A30BA00242669
:100CD0008316860183122C088600FC308316870059
:100CE000831207142D082C04BA0083168601831280
:100CF0003A0886000A30BA0024263908093C03184D
:100D0000BF2E3908633C031CBF2E83168601831255
:100D10002C088600FC3083168700831207103908E0
:100D2000BA000A30BB0037262D30200784000008A7
:100D30002C04BA008316860183123A0886000A3012
:100D4000BA0024268316860183122C088600FC3004
:100D500083168700831207143908BA000A30BB00D3
:100D600037262D302107840000082C04BA00831692
:100D7000860183123A0886000A30BA002426390810
:100D8000633C0318ED2E8316860183122C0886001F
:100D9000FC3083168700831207102C084038BA00F5
:100DA0008316860183123A0886000A30BA00242688
:100DB0008316860183122C088600FC308316870078
:100DC000831207142C084038BA0083168601831258
:100DD0003A0886000A30BA002426371C192F8316D9
:100DE000860183122C088600FC308316870083124C
:100DF00007102C084038BA008316860183123A087F
:100E00008600C830BA0024268316860183122C0877
:100E10008600FC3083168700831207142C084038A4
:100E2000BA008316860183123A088600C830BA00D9
:100E300024268A11472F03081F3983000C3083169C
:100E40009900A2309800903083129800AC013710BE
:100E5000B80183161F149F141F159F1107309C00A3
:100E60001F109F101F159F111F1383121F179F170D
:100E700083169F1783121F14B530900083160C142D
:100E8000C03083128B040E2E3808B9004C2E442F2C
:020E90006300FD
:02400E00323F3F
:00000001FF
;PIC16F873A
;CRC=CE10  CREATED="20-nov.-16 18:56"
